{"Contracts/popcorn.sol":{"Popcorn":{"abi":[{"inputs":[],"name":"var1","outputs":[{"internalType":"uint256","name":"","type":"uint256"}],"stateMutability":"view","type":"function"}],"evm":{"bytecode":{"linkReferences":{},"object":"608060405260008055348015601357600080fd5b50607d806100226000396000f3fe6080604052348015600f57600080fd5b506004361060285760003560e01c806367e919b614602d575b600080fd5b603560005481565b60405190815260200160405180910390f3fea26469706673582212204add2ffb65c25d0014690b02e61a89f0fcd55391b1b66e91765c14d63e055f5e64736f6c63430008100033","opcodes":"PUSH1 0x80 PUSH1 0x40 MSTORE PUSH1 0x0 DUP1 SSTORE CALLVALUE DUP1 ISZERO PUSH1 0x13 JUMPI PUSH1 0x0 DUP1 REVERT JUMPDEST POP PUSH1 0x7D DUP1 PUSH2 0x22 PUSH1 0x0 CODECOPY PUSH1 0x0 RETURN INVALID PUSH1 0x80 PUSH1 0x40 MSTORE CALLVALUE DUP1 ISZERO PUSH1 0xF JUMPI PUSH1 0x0 DUP1 REVERT JUMPDEST POP PUSH1 0x4 CALLDATASIZE LT PUSH1 0x28 JUMPI PUSH1 0x0 CALLDATALOAD PUSH1 0xE0 SHR DUP1 PUSH4 0x67E919B6 EQ PUSH1 0x2D JUMPI JUMPDEST PUSH1 0x0 DUP1 REVERT JUMPDEST PUSH1 0x35 PUSH1 0x0 SLOAD DUP2 JUMP JUMPDEST PUSH1 0x40 MLOAD SWAP1 DUP2 MSTORE PUSH1 0x20 ADD PUSH1 0x40 MLOAD DUP1 SWAP2 SUB SWAP1 RETURN INVALID LOG2 PUSH5 0x6970667358 0x22 SLT KECCAK256 0x4A 0xDD 0x2F 0xFB PUSH6 0xC25D0014690B MUL 0xE6 BYTE DUP10 CREATE 0xFC 0xD5 MSTORE8 SWAP2 0xB1 0xB6 PUSH15 0x91765C14D63E055F5E64736F6C6343 STOP ADDMOD LT STOP CALLER "},"methodIdentifiers":{"var1()":"67e919b6"}},"storageLayout":{"storage":[{"astId":4,"contract":"Contracts/popcorn.sol:Popcorn","label":"var1","offset":0,"slot":"0","type":"t_uint256"}],"types":{"t_uint256":{"encoding":"inplace","label":"uint256","numberOfBytes":"32"}}}}}}