{
  "_format": "hh-sol-artifact-1",
  "contractName": "Popcorn",
  "sourceName": "Contracts/popcorn.sol",
  "abi": [
    {
      "inputs": [],
      "name": "var1",
      "outputs": [
        {
          "internalType": "uint256",
          "name": "",
          "type": "uint256"
        }
      ],
      "stateMutability": "view",
      "type": "function"
    }
  ],
  "bytecode": "0x608060405260008055348015601357600080fd5b50607d806100226000396000f3fe6080604052348015600f57600080fd5b506004361060285760003560e01c806367e919b614602d575b600080fd5b603560005481565b60405190815260200160405180910390f3fea26469706673582212204add2ffb65c25d0014690b02e61a89f0fcd55391b1b66e91765c14d63e055f5e64736f6c63430008100033",
  "linkReferences": {},
  "deployedLinkReferences": {}
}